:100000000C9462000C947F000C947F000C947F0091
:100010000C947F000C947F000C947F000C94B00132
:100020000C947F000C947F000C947F000C947F0054
:100030000C947F000C947F000C947F000C947F0044
:100040000C9466010C947F000C947F000C947F004C
:100050000C947F000C947F000C947F000C947F0024
:100060000C947F000C947F00020000000024002705
:10007000002A0000000000250028002B00000000DE
:1000800000230026002900040404040404040402DC
:100090000202020202030303030303010204081025
:1000A00020408001020408102001020408102000F2
:1000B0000000080002010000030407000000000027
:1000C0000000000011241FBECFEFD8E0DEBFCDBF7F
:1000D00011E0A0E0B1E0EEECF9E002C005900D9275
:1000E000A230B107D9F721E0A2E0B1E001C01D9232
:1000F000A533B207E1F70E940C020C94E5040C94BE
:100100000000833081F028F4813099F08230A9F02A
:1001100008958730A9F08830C9F08430B1F4809117
:1001200080008F7D03C0809180008F778093800056
:10013000089584B58F7784BD089584B58F7DFBCFF6
:100140008091B0008F778093B00008958091B000C7
:100150008F7DF9CFCF93DF93282F30E0F901E15560
:10016000FF4F8491F901E556FF4FD491F901E9570A
:10017000FF4FC491CC23A1F081110E948100EC2F8C
:10018000F0E0EE0FFF1FE358FF4FA591B491EC9103
:10019000ED2381E090E009F480E0DF91CF910895B4
:1001A00080E090E0FACF1F93CF93DF93282F30E0C9
:1001B000F901E155FF4F8491F901E556FF4FD491C4
:1001C000F901E957FF4FC491CC23A9F0162F8111F3
:1001D0000E948100EC2FF0E0EE0FFF1FED58FF4F63
:1001E000A591B4918FB7F894EC91111108C0D095F6
:1001F000DE23DC938FBFDF91CF911F910895DE2B1B
:10020000F8CFCF93DF9390E0FC01E556FF4F2491A8
:1002100089579F4FFC0184918823D1F090E0880F8B
:10022000991FFC01E759FF4FA591B491FC01ED58CE
:10023000FF4FC591D491623071F49FB7F8943C910F
:10024000822F809583238C93E8812E2B28839FBF58
:10025000DF91CF9108958FB7F894EC912E2B2C93CA
:100260008FBFF6CF9091000189130BC0E8E6F0E054
:10027000E4919FEF90930001E13049F028F0E230E3
:1002800061F060E00C94D30010926E00FACF909170
:100290006F009D7F90936F00F4CF909170009D7FD1
:1002A0009093700091E09093B0009091B100987F8E
:1002B00094609093B1001092B300E3CF60E08FE0C0
:1002C0000E94D30060E080E10C94D3001F920F9253
:1002D0000FB60F9211242F933F938F939F93AF9359
:1002E000BF938091310190913201A0913301B0917F
:1002F00034013091300123E0230F2D3758F501965A
:10030000A11DB11D209330018093310190933201E2
:10031000A0933301B093340180912C0190912D0171
:10032000A0912E01B0912F010196A11DB11D8093C6
:100330002C0190932D01A0932E01B0932F01BF911A
:10034000AF919F918F913F912F910F900FBE0F9082
:100350001F90189526E8230F0296A11DB11DD2CF3C
:100360001F920F920FB60F9211242F933F934F932A
:100370005F936F937F938F939F93AF93BF93EF930D
:10038000FF938091160190911701A0911801B091EF
:100390001901892B8A2B8B2BD1F190911101E091BE
:1003A0001201F091130180818927808380911601C9
:1003B00090911701A0911801B09119011816190612
:1003C0001A061B069CF48091160190911701A091CA
:1003D0001801B09119010197A109B1098093160183
:1003E00090931701A0931801B0931901FF91EF9119
:1003F000BF91AF919F918F917F916F915F914F913D
:100400003F912F910F900FBE0F901F9018958091E4
:1004100000010E943201EACF789484B5826084BDE5
:1004200084B5816084BD85B5826085BD85B58160F8
:1004300085BD80916E00816080936E001092810076
:100440008091810082608093810080918100816031
:1004500080938100809180008160809380008091F2
:10046000B10084608093B1008091B000816080937E
:10047000B00080917A00846080937A0080917A0045
:10048000826080937A0080917A00816080937A0004
:1004900080917A00806880937A001092C10062E0B7
:1004A0008EE00E94010162E083E10E94010161E0AF
:1004B0008FE00E94010161E080E10E94010161E0A2
:1004C00084E00E9401010E945E0184E00E943201EA
:1004D00038E4432E38EE532E66246394712C4BE897
:1004E000242E40E0342E88248A94982C54018FB70F
:1004F000F894C0903101D0903201E0903301F09037
:1005000034018FBF8EE00E94AA00892B39F010922F
:10051000100110920F010E945E01B4C08091100181
:1005200081111FC001E000931001C0920B01D09215
:100530000C01E0920D01F0920E01C0920701D092E1
:100540000801E0920901F0920A01C0920301D092E1
:100550000401E0920501F0920601109202010E944E
:100560005E0114E410937C0080917A008064809393
:100570007A0080917A0086FDFCCF2091780030913E
:10058000790081E0263242E034070CF480E0263224
:1005900032400CF190910F0191111DC04091070163
:1005A000509108016091090170910A01970186013B
:1005B000041B150B260B370BB901A8014A3F510547
:1005C0006105710540F0C0920701D0920801E092E8
:1005D0000901F0920A0180930F0180910B01909123
:1005E0000C01A0910D01B0910E01A7019601281BED
:1005F000390B4A0B5B0BDA01C901883B9B40A10513
:10060000B10508F488CF8091070190910801A0916D
:100610000901B0910A0197018601081B190B2A0BE9
:100620003B0BD901C801803D9740A105B10508F4F5
:1006300072CF8091030190910401A0910501B091C6
:100640000601A7019601281B390B4A0B5B0BDA0147
:10065000C901C297A105B105A8F0C0920301D092CB
:100660000401E0920501F0920601C091020161E0EF
:100670006C27609302018FE00E94D3006C2F80E111
:100680000E94D30083E10E94AA0021E0009709F0B4
:1006900020E0892B91F480912B0181110EC0D701AC
:1006A000C60184529A4FAF4FBF4F8093270190935A
:1006B0002801A0932901B0932A0120932B01809156
:1006C000270190912801A0912901B0912A018C194C
:1006D0009D09AE09BF09181619061A061B066CF00B
:1006E00084E00E9432011092260100E010E0012B0C
:1006F00009F4FDCE0E940000FACE80912201909173
:100700002301A0912401B091250197018601081BC6
:10071000190B2A0B3B0BD901C80188379105A1059C
:10072000B10518F3C0922201D0922301E092240176
:10073000F09225018091260190E00196837099271F
:10074000982F809326018D7F21F484E00E9432014E
:10075000CCCFC0E4D6E0913011F0C0E6D9E0809172
:100760000001843059F5E8E6F0E0049107FDBDCFC3
:1007700061E084E00E940101011139C09E0150E056
:1007800040E0C301B2010E94A404BA01A901415092
:1007900051096109710985B5887F836085BD47BDB1
:1007A00080921E0190921F01A0922001B09221011F
:1007B00080916E00826080936E0097CF8F3F09F02A
:1007C00094CF84E080930001E8E6F0E004910F3FCD
:1007D00009F48BCF013009F44BC088F1023009F4E1
:1007E00065C007FD82CF61E084E00E9401019E01A7
:1007F00050E040E0023009F07BC060E970ED83E03A
:1008000090E00E94A404BA01A90141505109610974
:1008100071098091B100887F83608093B10040931B
:10082000B3008092160190921701A0921801B09225
:1008300019018091700082608093700056CF14BCC3
:1008400015BC84B5826084BD85B5816085BDF1012C
:100850008491E82FF0E0EE0FFF1FED58FF4F8591D8
:100860009491EFE9F0E084918093150100E080CF4E
:1008700010928000109281008091810088608093A6
:10088000810080918100816080938100F1018491D9
:10089000E82FF0E0EE0FFF1FED58FF4F8591949188
:1008A000EFE9F0E084918093140162CF1092B000E0
:1008B0001092B1008091B00082608093B00080916E
:1008C000B10081608093B100F1018491E82FF0E0E4
:1008D000EE0FFF1FED58FF4F8591949190931301F8
:1008E00080931201EFE9F0E084918093110140CFF1
:1008F00060E072E18AE790E00E94A404DA01C90195
:100900000197A109B109AC010130C1F42091810026
:10091000287F216020938100909389008093880034
:1009200080921A0190921B01A0921C01B0921D01AD
:1009300080916F00826080936F00D7CE023009F4FF
:100940006ECF0111D2CE2BCF052E97FB1EF4009453
:100950000E94BB0457FD07D00E94C30407FC03D0CC
:100960004EF40C94BB0450954095309521953F4F23
:100970004F4F5F4F089590958095709561957F4F8B
:100980008F4F9F4F0895A1E21A2EAA1BBB1BFD019A
:100990000DC0AA1FBB1FEE1FFF1FA217B307E4075E
:1009A000F50720F0A21BB30BE40BF50B661F771FB6
:1009B000881F991F1A9469F7609570958095909596
:0E09C0009B01AC01BD01CF010895F894FFCF5B
:0209CE00FF0028
:00000001FF
